:020000040800F2
:10000000480E012081020008994F0108A11E010835
:10001000954F0108F10B0008F5CD01080000000024
:10002000000000000000000000000000E562010880
:10003000CD11000800000000E153010881630108B0
:100040009B0200089B0200089B0200089B0200081C
:100050009B0200089B020008D11100089B020008C7
:100060009B020008DD110008E91100089B0200084E
:10007000E50E0008F50E00089B020008050F0008B9
:100080009B0200089B0200089B0200089B020008DC
:10009000F50B0008050C00089B020008F51100088C
:1000A0009B0200089B0200089B0200089B020008BC
:1000B0009B02000895650108A56501089B020008E0
:1000C0009B0200089B0200089B0200089B0200089C
:1000D0009B020008F18301089B02000801840108CB
:1000E0009B0200089B0200089B0200089B0200087C
:1000F0009B0200089B0200089B0200089B0200086C
:100100009B0200089B020008B56501089B020008DD
:100110009B0200089B0200089B0200089B0200084B
:100120009B020008150F0008250F0008350F000876
:100130009B0200089B0200089B0200089B0200082B
:10014000150C0008250C00089B0200081D50010832
:10015000450F0008550F0008650F000811840108BD
:100160009B0200089B0200089B0200089B020008FB
:100170009B0200089B0200089B0200080000000090
:100180009B0200089B02000800F002F800F066F8ED
:100190000AA090E8000C82448344AAF10107DA45E2
:1001A00001D100F05BF8AFF2090EBAE80F0013F0CE
:1001B000010F18BFFB1A43F001031847D0130300C7
:1001C000F01303000A444FF0000C10F8013B13F049
:1001D000070408BF10F8014B1D1108BF10F8015BA0
:1001E000641E05D010F8016B641E01F8016BF9D193
:1001F00013F0080F1EBF10F8014BAD1C0C1B09D1EA
:100200006D1E58BF01F801CBFAD505E014F8016B5B
:1002100001F8016B6D1EF9D59142D6D370470000ED
:100220000023002400250026103A28BF78C1FBD8FF
:10023000520728BF30C148BF0B6070471FB530F070
:1002400072F99DE8030000F013FA00F017F88DE84A
:100250000F0000F0DFF91FBD10B510BD00F0CAFBA4
:100260001146FFF7EBFF2DF0A3FD00F0FCFB03B4FC
:10027000FFF7F2FF03BC00F071FB000000F0C5BA0D
:100280000948804709480047FEE7FEE7FEE7FEE72A
:10029000FEE7FEE7FEE7FEE7FEE7FEE70448054966
:1002A000054A064B70470000816501088901000876
:1002B000486E0020480E012048BE002048BE0020A5
:1002C00070B5064600F0B8F9056806F10B0020F09D
:1002D0000704B4429CBF002070BD2B466A68BAB1C7
:1002E0001068A04210D304F1080188423CBF506856
:1002F000586007D35168101941601168091B0160EB
:1003000058601460101D70BD13465268002AE7D172
:100310002146284600F098F90028DED170BD53EA46
:10032000020C00F069802DE9F04B4FF00006002B25
:100330001FBFB3FA83F503FA05F424FA05F65E400D
:1003400012BF1643B2FA82F502FA05F4C5F1200590
:100350001EBF22FA05FC44EA0C04203556EA044C80
:100360004FEA144418BF641C4FF000084FF0000916
:10037000904271EB030C39D3002919BFB1FA81F710
:1003800001FA07F6B0FA80F700FA07F6C7F120077E
:100390001EBF20FA07FC46EA0C062037B6FBF4FC29
:1003A000A7EB0507103F07F01F0BCBF120062CFA37
:1003B00006F60CFA0BFB44BFB3460026202FA4BF61
:1003C0005E464FF0000B5BEA060C08BF4FF0010BD6
:1003D00019EB0B0948EB0608ABFB027C06FB02CCD1
:1003E0000BFB03CCC01B71EB0C01C1E70B460246B3
:1003F00041464846BDE8F08B13B54FF000004FF082
:100400000001AFF30080BDE81C407047032A40F2B2
:10041000308010F0030C00F0158011F8013BBCF1A6
:10042000020F624498BF11F801CB00F8013B38BFBE
:1004300011F8013BA2F1040298BF00F801CB38BFCC
:1004400000F8013B11F0030300F02580083AC0F0EA
:10045000088051F8043B083A51F804CBA0E8081092
:10046000F5E7121D5CBF51F8043B40F8043BAFF3C5
:100470000080D20724BF11F8013B11F801CB48BF1F
:1004800011F8012B24BF00F8013B00F801CB48BF55
:1004900000F8012B704710B5203AC0F00B80B1E88E
:1004A0001850A0E81850B1E81850A0E81850203AA9
:1004B000BFF4F5AF5FEA027C24BFB1E81850A0E8B2
:1004C000185044BF18C918C0BDE810405FEA827CCC
:1004D00024BF51F8043B40F8043B08BF7047D207E3
:1004E00028BF31F8023B48BF11F8012B28BF20F884
:1004F000023B48BF00F8012B70474FF0000204296F
:10050000C0F0128010F0030C00F01B80CCF1040C42
:10051000BCF1020F18BF00F8012BA8BF20F8022B76
:10052000A1EB0C0100F00DB85FEAC17C24BF00F81C
:10053000012B00F8012B48BF00F8012B70474FF04A
:10054000000200B5134694469646203922BFA0E823
:100550000C50A0E80C50B1F12001BFF4F7AF09072F
:1005600028BFA0E80C5048BF0CC05DF804EB890020
:1005700028BF40F8042B08BF704748BF20F8022B63
:1005800011F0804F18BF00F8012B704700000000E9
:1005900030B44FF0013C50F8042B51F8043BCCFA36
:1005A00052F4D51A20D1FCB950F8042B51F8043B71
:1005B000CCFA52F4D51A17D1B4B950F8042B51F82B
:1005C000043BCCFA52F4D51A0ED16CB950F8042B76
:1005D00051F8043BCCFA52F4D51A05D1002CDAD0EC
:1005E00030BC4FF00000704729BAB1FA81F111F028
:1005F0001801D1F120008440F2D1CA40CB4012F062
:10060000FF0213F0FF0330BCD01A704770477047E9
:100610007047000070B5064C7C44064D7D4403E0F5
:10062000206820448047241DAC42F9D170BD0000F1
:10063000900F03009C0F0300004870472002002029
:10064000704770477047704738B504460A46002027
:100650006946AFF30080002808BF38BD0246009904
:10066000204600F08BF9012038BD012000F0A7B929
:10067000F8B5AFF30080054600200C46102000BFFF
:100680000646A819A0420DD9324669460020AFF3AC
:100690000080070008BF00F092F90098A04218BF40
:1006A0000546C419FFF7C8FF05600746F01D20F096
:1006B00007004619284600F00AF8B44208BFF8BD02
:1006C000A21B31463868BDE8F84000F057B9002158
:1006D0000160C0E9011070471020704770B50446F2
:1006E000051FFFF7A9FF0068002C14BF446870BD08
:1006F000002C18BFAC423CBF20466468F8D30168A8
:100700000A18AA4218BF456003D12A680546114459
:10071000016028684119A1421CBF6C6070BD61680E
:10072000696021680844286070BD2DE9F047914652
:100730000C468046FFF780FF0768604234EA0000FD
:1007400001D1042C02D20520BDE8F087601E40F0E4
:10075000070609F10B0020F007054D459CBF00205E
:10076000BDE8F0873B467A6882B31468101D4042AA
:1007700006EA000C644525D9A4EB0C00854221D87B
:10078000BCF1000F0BD0104601686244A1EB0C01D4
:10079000116041685160C0F800C05860034611689C
:1007A00005F10800814205D35019491B016015600D
:1007B0005860034652F8040F58600020C8F8002023
:1007C000BDE8F08713465268002ACED12946384644
:1007D000FFF73AFF0028C5D10620BDE8F08710B525
:1007E00000F0C6F8006810BD10B5044600F0C0F86F
:1007F000046010BD10B5002000F0DAF8FFF72CFD02
:10080000BDE81040012000F0A9B82DE9FE4F0027F7
:100810004FF48074BA4620468DF80070FFF750FD03
:100820005FEA000801D100F0CAF82146404600F016
:1008300088F8060009D04FF0010B4546C14616F86E
:10084000014B8FB15C2C16D01CE008F1080041462A
:10085000C8F800000020C8F80400D8F80040207054
:10086000012003B0BDE8F08F222C01D0272C0FD13E
:100870002746BA462CE03078222807D05C2805D0DD
:10088000272803D0BC4203D1002721E0761C044670
:100890004CB12FB9202C06D0A4F10900042802D9AC
:1008A00005F8014BCBE74D4502D1BAF1000F0FD04F
:1008B00052464946002005F8010B6846AFF3008018
:1008C0009DF8000068B14D464FF0000A0BF1010B96
:1008D000002CB4D14FEA8B00FFF7F2FC040002D0E9
:1008E00004E0A946F0E7002000F069F80026404641
:1008F000C4F8008005E010F8011B11B9761C44F81B
:100900002600A842F7D32146002044F826003046AE
:10091000A7E7000080E8FF1FC0F834D0C0F838E037
:10092000C0F83CE04FF00000704700BF80EC200BA7
:10093000704700BF80EC200B704700BFC0EC200B5D
:1009400070471CB50446CDE9000169461520ABBED1
:1009500008B100201CBD20461CBD00000149182024
:10096000ABBEFEE7260002000048704718020020D8
:1009700000487047180200207047704703464068DF
:100980008C46002818BF88423CBF03464068F8D315
:1009900018681844884207D00CF1030020F00700C3
:1009A000001D411A521A0146081D0A60FFF796BE43
:1009B00010B500F067F8BDE8104000F05DB810B564
:1009C00000F078F8BDE8104000F056B886469EE882
:1009D000FF1FDEF834D0DEF83CE0704790EC200BCF
:1009E000704700BF90EC200B704700BFD0EC200B8D
:1009F000704770477546FFF7B7FFAE46050069467A
:100A0000534620F00700854618B020B5FFF746FC96
:100A1000BDE820404FF000064FF000074FF00008FF
:100A20004FF0000BAC46ACE8C009ACE8C009ACE83C
:100A3000C009ACE8C00921F007018D46704770B5C8
:100A4000A0FB0140B4F1805170F1000024BF0020F0
:100A500070BD2046FFF734FC05001CBF2146FFF7A0
:100A60004CFD284670BD10B50446AFF3008020460B
:100A7000BDE81040FFF7FBBB002801D0FFF76EBFB9
:100A80007047000010B5002102A000F03BF80120E3
:100A900010BD0000534947414252543A2041626E12
:100AA0006F726D616C207465726D696E6174696FCF
:100AB0006E00000010B5012805D0002103A000F051
:100AC00021F8012010BD09A1F8E700005349475261
:100AD000544D454D3A204F7574206F66206865610E
:100AE00070206D656D6F7279000000003A204865D6
:100AF0006170206D656D6F727920636F72727570B1
:100B00007465640070B505460C460A2000E06D1C53
:100B100000F011F835B128780028F8D102E0641C03
:100B200000F009F814B120780028F8D1BDE8704031
:100B30000A20AFF3008008B569468DF80000032055
:100B4000ABBE08BD80B586B00A4603460590049149
:100B50000020ADF80E00059800280292019304D001
:100B6000FFE70498022801D8FFE718E005980499E8
:100B700002394FF6FF7200F047FBADF80E00BDF8EA
:100B80000E000599049A114401F8020CBDF80E00FC
:100B9000000A0599049A114401F8010CFFE706B018
:100BA00080BD000080B586B00A46034605900491DA
:100BB00000208DF80F00059800280292019304D0C0
:100BC000FFE70498022801D8FFE70FE00598049991
:100BD0000139FF2200F056FB8DF80F009DF80F0041
:100BE0000599049A114401F8010CFFE706B080BD95
:100BF000FFE7FEE780B546F2FC10C2F2000000F00D
:100C000085FE80BD80B546F2FC10C2F2000000F007
:100C10007DFE80BD80B546F22420C2F2000000F0C7
:100C200075FE80BD80B546F22420C2F2000000F0BF
:100C30006DFE80BD80B58AB00A46034609900891D2
:100C40000998006846F20041C4F200018842079208
:100C5000069316D1FFE7099840F21841C2F200014D
:100C6000086008988862099800210591059A059BFB
:100C70001DF050FE09980C21059A059B1DF04AFEB7
:100C800019E00998006846F60001C4F200018842A4
:100C900010D1FFE7099840F2A441C2F200010860B8
:100CA000089888620998702100220492049B1DF024
:100CB00031FEFFE7FFE7099801F006FBDDF824E0CD
:100CC00002210390704600F03BFB09994FF0100E93
:100CD00002900846714600F033FB01900AB080BDD7
:100CE000B0B590B09C4696460C4605460F90ADF8C0
:100CF0003A100D92ADF83230BDF83A00069000205F
:100D0000079008900990BDF832000A900F980D9A4C
:100D100006A905ABCDF810C0CDF80CE00294019502
:100D200000F03CFB10B0B0BD80B587B013468C46D8
:100D300086468DF81B000591ADF812209DF81B002A
:100D4000014623280393CDF808C0CDF804E00091B4
:100D50001DD80099DFE801F012131415161B1B1B98
:100D60001B1B1B1B1B1B1B1B1B1B1B1B1B1B1B1BD3
:100D70001B1B1B1B1B1B1B1B1718191A08E007E06A
:100D800006E005E004E003E002E001E000E0FFE748
:100D9000002007B080BD00000020704780B584B0FF
:100DA00045F62070C2F2000041F65871C2F200010F
:100DB00000220390029217F057FF41F25871C2F2DD
:100DC0000001039A0190104617F02AFF0299009043
:100DD000084604B080BD000080B58AB00A460346CC
:100DE00009900891099945F62070C2F20000079019
:100DF0000692059317F014FF07990490084617F020
:100E0000A9FE0999089A126840F2D863C2F2000359
:100E100003F1300E039070460293FFF7F7FA08993A
:100E20000968029AA2F86010516E099BDDF820E073
:100E3000DEF800E00190184600917146009B98474B
:100E400000200AB080BD000080B586B013468C46F5
:100E50008646059004918DF80F2000208DF80E0035
:100E60009DF90E000293CDF804C0CDF800E006B065
:100E700080BD000080B588B00A4603460690ADF8F4
:100E8000161000208DF8150045F62070C2F2000003
:100E9000D0F8BC0204900498D0F814020028039201
:100EA000029304D0FFE701208DF81F0015E006999A
:100EB000BDF8162045F62070C2F20000019017F030
:100EC000D3FE01990090084617F0F6FF8DF8150043
:100ED0009DF815008DF81F00FFE79DF81F0008B072
:100EE00080BD000080B546F2EC40C2F2000001F087
:100EF00071FB80BD80B546F24C20C2F2000001F0CB
:100F000069FB80BD80B546F2AC20C2F2000001F062
:100F100061FB80BD80B546F2CC30C2F2000001F02A
:100F200059FB80BD80B546F24C50C2F2000001F082
:100F300051FB80BD80B546F26C30C2F2000001F07A
:100F400049FB80BD80B546F22C40C2F2000001F0A2
:100F500041FB80BD80B546F2AC50C2F2000001F00A
:100F600039FB80BD80B546F28C40C2F2000001F032
:100F700031FB80BD84B0014603900398007810389F
:100F80004AF6AB22CAF6AA22A0FB0202120902927A
:100F9000029A40F6C813C0F603039A5C039BDA6515
:100FA000029A042A0191009007D3FFE70398016891
:100FB000042262F30901816506E00398016840F2AA
:100FC000FF3291438165FFE70398806D04B070475D
:100FD00087B00146069000208DF817000698806AB9
:100FE0000490069880690028039122D1FFE70498B5
:100FF000032802901BD80299DFE801F0020D0218C5
:101000000698C06AC001002804D5FFE701208DF8CA
:101010001700FFE70CE00698C06AB0F1C07F04D16A
:10102000FFE701208DF81700FFE701E000E0FFE790
:1010300045E006988069B0F5005F25D1FFE7049888
:10104000032801901ED80199DFE801F00206021181
:1010500001208DF8170016E00698C06AC00100282C
:1010600004D5FFE701208DF81700FFE70BE0069895
:10107000C06AB0F1C07F04D1FFE701208DF81700EE
:10108000FFE700E0FFE719E004980328009004D38D
:10109000FFE70098032804D00EE001208DF8170028
:1010A0000BE00698C06AC001002804D5FFE70120C4
:1010B0008DF81700FFE700E0FFE7FFE7FFE79DF887
:1010C000170007B070470000B0B588B09C46964640
:1010D0000C46054607900691059204930798006810
:1010E000016821F48021016004980799096848602B
:1010F000079880684028CDF80CC0CDF808E001942E
:10110000009509D1FFE70598079909688860069856
:1011100007990968C86008E0069807990968886017
:10112000059807990968C860FFE708B0B0BD0000DE
:1011300080B584B0014603904EF6FC50CEF200001C
:10114000026842F08072026041F20400CEF20000B8
:101150000022026041F20000CEF20000036843F07A
:1011600001030360039844F24023C0F20F03584385
:1011700040F2D043C2F200031860186844F6D35C12
:10118000C1F2620CA0FB0C0C4FEA9C1C40F2D44E46
:10119000C2F2000ECEF800C01B684DF6836CC4F29C
:1011A0001B3CA3FB0C3C4FEA9C4C40F2D84EC2F2D5
:1011B000000ECEF800C040F2EC4CC2F2000CCCF8AD
:1011C000002002910193009004B080BD70470000A0
:1011D00080B5012001F0A2FF80BD000080B508208D
:1011E00001F09CFF80BD000080B5102001F096FF4B
:1011F00080BD000080B5202001F090FF80BD000080
:1012000072B6FFE7FEE7000080B587B013468C4654
:10121000864605900491ADF80E20059800280293AB
:10122000CDF804C0CDF800E005D1FFE74FF6FF7020
:10123000ADF81A0022E0FFE70498411E049100284F
:1012400017D0FFE70598411C059100788DF80D0037
:10125000BDF80E009DF80D104140C9B240F6D01205
:10126000C0F6030232F8111081EA1020ADF80E002A
:10127000E2E7BDF80E00ADF81A00FFE7BDF81A006E
:1012800007B080BD80B586B013468C468646059073
:1012900004918DF80F200293CDF804C0CDF800E042
:1012A000FFE70498411E0491002813D0FFE79DF842
:1012B0000F0005994A1C0592097848408DF80E00E8
:1012C0009DF80E0040F66061C0F60301085C8DF8E1
:1012D0000F00E6E79DF80F0006B080BD80B584B032
:1012E00047F61020C1F6FF700068039047F61420FF
:1012F000C1F6FF700068029047F61820C1F6FF7033
:10130000006801900198039908440390039800280D
:1013100013D0FFE7039840F2C011C2F200018A1C0B
:101320000823009111461A4613F040F902980099DB
:101330001231042213F03AF9FFE704B080BD000037
:1013400086B00A46034604900391049890F8200062
:101350008DF80B009DF80B0001280192009305D039
:10136000FFE79DF80B0002280AD1FFE703980499D4
:1013700009684A691043486100208DF8170008E0A9
:101380000498416A41F48021416201208DF81700E0
:10139000FFE79DF8170006B070470000B0B58CB0AD
:1013A0009C4696460C4605460A900991089207937A
:1013B0000A9890F820008DF817000A980068806855
:1013C0000490099880680028CDF80CC0CDF808E09A
:1013D0000194009501D1FFE700E0FFE79DF81700B9
:1013E000012806D0FFE79DF81700022840F0828010
:1013F000FFE79DF81300400700280CD4FFE79DF895
:1014000013000007002806D4FFE79DF81300C0066C
:10141000002866D5FFE70498C0F30160069006989F
:10142000012101FA00F007990860099880680028F6
:101430000DD1FFE709980168C06840EA41500A9958
:101440000968069A01EB0211C1F880010EE00998C3
:1014500041688268C06842EAC10108430A99096884
:10146000069A01EB0211C1F88001FFE709980069B3
:101470000A990968069A01EB0211C1F884010998DA
:10148000007D01280CD1FFE70A980068069900EB5F
:101490000110D0F8841141F48071C0F88411FFE785
:1014A000089840680A990968069A01EB0211C1F888
:1014B0008C01089800680A990968069A01EB0211E4
:1014C000C1F888010A980068069900EB0110D0F86D
:1014D000801141F00101C0F8801100208DF82F002B
:1014E00011E00A98416A41F40011416201208DF82F
:1014F0002F0008E00A98416A41F4802141620120EE
:101500008DF82F00FFE79DF82F000CB0B0BD000054
:1015100088B00A4603460690059106980068039035
:10152000069890F820008DF80B009DF80B0001281C
:101530000192009306D0FFE79DF80B00022840F0CF
:10154000B880FFE746F20040C4F200000390039821
:10155000D0F8001241F00101C0F800120398D0F851
:10156000001221F47C51C0F800120598406A0399DA
:10157000D1F8002242EA0020C1F800020598406933
:1015800000F01F00012101FA00F004900498039973
:10159000D1F81C2222EA0000C1F81C020598C0699B
:1015A00000281FD1FFE704980399D1F80C2222EA02
:1015B0000000C1F80C0205988188C268406941EAC0
:1015C0000241039A02EBC000C0F84012059801885E
:1015D0008268406941EA0241039A02EBC000C0F808
:1015E0004412FFE70598C06901281ED1FFE704985F
:1015F0000399D1F80C221043C1F80C020598818898
:101600000268406941EA0241039A02EBC000C0F857
:101610004012059881898268406941EA0241039A33
:1016200002EBC000C0F84412FFE70598806900286B
:1016300009D1FFE704980399D1F8042222EA0000B7
:10164000C1F8040207E004980399D1F8042210437A
:10165000C1F80402FFE705980069002809D1FFE7F7
:1016600004980399D1F8142222EA0000C1F8140268
:1016700007E004980399D1F814221043C1F814022A
:10168000FFE70598006A012808D1FFE7049803994D
:10169000D1F81C221043C1F81C02FFE70398D0F8D0
:1016A000001221F00101C0F8001200208DF81F0087
:1016B00008E00698416A41F48021416201208DF8DA
:1016C0001F00FFE79DF81F0008B0704782B0014679
:1016D0000190009102B07047B0B58AB09C46964622
:1016E0000C4605460890079106920593089890F8D5
:1016F00020008DF813009DF813000128CDF80CC0D0
:10170000CDF808E00194009506D0FFE79DF813009E
:10171000022840F0ED80FFE70798002811D1FFE78D
:1017200008980068C06810F0030F09D1FFE7089817
:10173000416A41F40011416201208DF82700E0E088
:1017400010E008980068006910F0030F09D1FFE766
:101750000898416A41F40011416201208DF8270088
:10176000CFE0FFE708980068079900EB0110D0F878
:10177000B00100F00400069988600698806800288F
:101780000BD1FFE708980068079900EB0110D0F82B
:10179000B001400D069908600AE0089800680799B2
:1017A00000EB0110D0F8B001C00806994860FFE7CF
:1017B00008980068079900EB0110D0F8B00100F01C
:1017C00002000699C86008980068079900EB0110AC
:1017D000D0F8B40100F00F00082804D3FFE7069802
:1017E000082101610BE008980068079900EB0110DF
:1017F000D0F8B40100F00F0006990861FFE70898DF
:101800000068079900EB0110D0F8B401C0F307207D
:101810000699886108980068079900EB0110D0F8D4
:10182000B401000C0699486108980068079900EB1C
:101830000110D0F8B8010599087008980068079958
:1018400000EB0110D0F8B801000A0599487008981B
:101850000068079900EB0110D0F8B801000C059959
:10186000887008980068079900EB0110D0F8B8015B
:10187000000E0599C87008980068079900EB0110E0
:10188000D0F8BC010599087108980068079900EB29
:101890000110D0F8BC01000A059948710898006849
:1018A000079900EB0110D0F8BC01000C0599887174
:1018B00008980068079900EB0110D0F8BC01000EF1
:1018C0000599C8710798002807D1FFE708980068B4
:1018D000C16841F02001C16006E008980068016914
:1018E00041F020010161FFE700208DF8270008E0AA
:1018F0000898416A41F48021416201208DF8270057
:10190000FFE79DF827000AB0B0BD000080B58AB09F
:1019100001460990002008900998006840690790E6
:1019200009980068406806900998006880680590EA
:1019300009980068C06804900998006800690390DD
:1019400009980068806902909DF81C00C007002873
:10195000019100F09780FFE79DF81400C007002870
:101960002BD0FFE709980068012181609DF81400E1
:101970008007002804D5FFE7099800F0F5FC1BE07C
:101980009DF814004007002805D5FFE7089840F4AB
:10199000006008900FE09DF814000007002805D5AE
:1019A000FFE7089840F48050089003E0099800F0A1
:1019B000D5FCFFE7FFE7FFE7FFE79DF81500C0074D
:1019C00000282CD0FFE7099800684FF480718160EF
:1019D0009DF815008007002804D5FFE7099800F05E
:1019E000CFFC1BE09DF815004007002805D5FFE758
:1019F000089840F4005008900FE09DF8150000078B
:101A0000002805D5FFE7089840F48040089003E0DF
:101A1000099800F0AFFCFFE7FFE7FFE7FFE79DF85D
:101A20001600C00700282CD0FFE7099800684FF483
:101A3000803181609DF816008007002804D5FFE7FB
:101A4000099800F0A9FC1BE09DF81600400700284B
:101A500005D5FFE7089840F4004008900FE09DF896
:101A600016000007002805D5FFE7089840F48030ED
:101A7000089003E0099800F089FCFFE7FFE7FFE723
:101A8000FFE7FFE79DF81C000007002810D5FFE7DF
:101A90009DF81000C006002809D5FFE7089840F41B
:101AA00000700890099800681021C160FFE7FFE707
:101AB0009DF81C00400700280FD5FFE79DF8100097
:101AC0000007002808D5FFE7099800680821C160D1
:101AD000099800F05BFBFFE7FFE79DF81C0080071B
:101AE00000280CD5FFE709980068C06810F0030FC4
:101AF00004D0FFE7099800F04FFBFFE7FFE79DF8F0
:101B00001C004006002810D5FFE79DF80C00C00619
:101B1000002809D5FFE7089840F4806008900998EC
:101B2000006810210161FFE7FFE79DF81C008006B7
:101B300000280FD5FFE79DF80C000007002808D506
:101B4000FFE70998006808210161099800F06AFB25
:101B5000FFE7FFE79DF81C00C00600280CD5FFE753
:101B600009980068006910F0030F04D0FFE7099896
:101B700000F05EFBFFE7FFE79DF81E0080070028EE
:101B80000FD5FFE79DF81800C006002808D5FFE72D
:101B90000998006810214160099800F08FFBFFE769
:101BA000FFE79DF81E00C00700280FD0FFE79DF853
:101BB00018000007002808D5FFE7099800680821E9
:101BC0004160099800F0EEFBFFE7FFE79DF81D007C
:101BD0000006002840F18F80FFE79DF818004007BD
:101BE000002840F18380FFE79DF81D00C007002812
:101BF0000BD0FFE79DF80800C007002805D0FFE7DD
:101C0000089840F001000890FFE79DF81D0080074C
:101C100000280BD5FFE79DF808008007002805D5B0
:101C2000FFE7089840F002000890FFE79DF81D00CC
:101C3000400700280BD5FFE79DF808004007002863
:101C400005D5FFE7089840F004000890FFE79DF8ED
:101C50001D000007002848D5FFE79DF8080010F098
:101C6000700F42D0FFE7029800F070000146102884
:101C7000009114D0FFE70098202815D0FFE70098C6
:101C8000302816D0FFE70098402817D0FFE70098CB
:101C9000502818D0FFE70098602819D01DE0089858
:101CA00040F00800089019E0089840F010000890F3
:101CB00014E0089840F0200008900FE0089840F0E9
:101CC000400008900AE0089840F08000089005E085
:101CD000089840F48070089000E0FFE709980068D9
:101CE000816921F070018161FFE7FFE709980068D1
:101CF00004214160FFE70898002809D0FFE7089811
:101D000009994A6A104348620998FFF7DFFCFFE728
:101D10000AB080BD80B584B00146029002980028C8
:101D2000009104D1FFE701208DF80F00E6E0029852
:101D300090F82000002804D1FFE7029800F048F94D
:101D4000FFE702980068016841F00101016001F0BD
:101D500025FC0190FFE702980068406810F0010F31
:101D600017D1FFE701F01AFCDDF804E0A0EB0E004C
:101D70000B280DD3FFE70298416A41F4003141621C
:101D80000298052180F8201001208DF80F00B5E0A1
:101D9000E1E702980068016821F00201016001F0AA
:101DA000FDFB0190FFE702980068406810F0020F09
:101DB00017D0FFE701F0F2FBDDF804E0A0EB0E0026
:101DC0000B280DD3FFE70298416A41F400314162CC
:101DD0000298052180F8201001208DF80F008DE079
:101DE000E1E70298007E012807D1FFE7029800682A
:101DF000016841F08001016006E002980068016816
:101E000021F080010160FFE70298407E012807D1A0
:101E1000FFE702980068016841F04001016006E0B8
:101E200002980068016821F040010160FFE7029814
:101E3000807E012807D1FFE702980068016841F021
:101E40002001016006E002980068016821F020018D
:101E50000160FFE70298C07E012807D1FFE70298E2
:101E60000068016821F01001016006E00298006836
:101E7000016841F010010160FFE70298007F01282E
:101E800007D1FFE702980068016841F0080101608E
:101E900006E002980068016821F008010160FFE790
:101EA0000298407F012807D1FFE702980068016887
:101EB00041F00401016006E002980068016821F029
:101EC00004010160FFE70298016842688368D0F866
:101ED0000CC043EA0C03D0F810C043EA0C0340697D
:101EE0001843013A1043C8610298002141620298E8
:101EF000012280F820208DF80F10FFE79DF80F00D9
:101F000004B080BD80B582B00146019001980068A0
:101F100046F20042C4F200029042009122D1FFE753
:101F200040F20860C2F200000168013901600068F7
:101F3000002809D1FFE743F64000C4F2020001681F
:101F400021F000710160FFE740F60040C4F202009A
:101F5000032100F0B7FF142005F0DCFA152005F08E
:101F6000D9FA33E00198006846F60001C4F2000196
:101F700088422AD1FFE743F64000C4F2020001681C
:101F800021F08061016040F20860C2F20000016847
:101F9000013901600068002809D1FFE743F64000DD
:101FA000C4F20200016821F000710160FFE740F215
:101FB0000040C4F20200602100F084FF402005F0E0
:101FC000A9FA412005F0A6FAFFE7FFE702B080BDBD
:101FD00080B598B001461790002016901590149087
:101FE000139012901798006846F20042C4F2000263
:101FF00090420C9155D1FFE740F20860C2F2000018
:102000000168013101600068012813D1FFE7FFE793
:102010000020119043F64000C4F20200016841F034
:1020200000710160006800F00070119011980B9031
:10203000FFE7FFE7FFE70020109043F63000C4F20F
:102040000200016841F008010160006800F008002A
:10205000109010980A90FFE703201290022113912C
:102060000021149115900920169040F60040C4F20A
:10207000020012AA0991114601F06EF8142008908E
:102080000999099A05F062FA089805F04FFA1520A7
:1020900007900999099A05F059FA079805F046FA48
:1020A00072E01798006846F60001C4F20001884209
:1020B00069D1FFE7FFE700200F9043F64000C4F22C
:1020C0000200016841F080610160006800F08060FA
:1020D0000F900F980690FFE740F20860C2F20000F0
:1020E0000168013101600068012813D1FFE7FFE7B3
:1020F00000200E9043F64000C4F20200016841F057
:1021000000710160006800F000700E900E9805905C
:10211000FFE7FFE7FFE700200D9043F63000C4F231
:102120000200016841F002010160006800F0020055
:102130000D900D980490FFE76020129002201390FC
:1021400000201490032115910921169140F20041BD
:10215000C4F2020112AA03900846114600F0FCFFE7
:10216000402002900399039A05F0F0F9029805F0D7
:10217000DDF9412001900399039A05F0E7F90198F0
:1021800005F0D4F9FFE7FFE718B080BD82B0014643
:102190000190009102B0704780B588B00146079069
:1021A0000798006846F20042C4F20002904206918D
:1021B00016D1FFE7079840F21841C2F200010A1D4C
:1021C00001F120034FF0000C059161460492FFF7E6
:1021D00083FA05998A6A049B0390184690471FE08A
:1021E0000798006846F60001C4F20001884216D143
:1021F000FFE7079840F2A441C2F200010A1D01F175
:1022000020034FF0000C029161460192FFF764FA3F
:1022100002998A6A019B009018469047FFE7FFE702
:1022200008B080BD82B001460190009102B07047B5
:1022300080B588B0014607900798006846F20042D2
:10224000C4F200029042069116D1FFE7079840F2CF
:102250001841C2F200010A1D01F120034FF0010CE8
:10226000059161460492FFF737FA05998A6A049B43
:102270000390184690471FE00798006846F6000153
:10228000C4F20001884216D1FFE7079840F2A4414A
:10229000C2F200010A1D01F120034FF0010C02916E
:1022A00061460192FFF718FA02998A6A019B009031
:1022B00018469047FFE7FFE708B080BD82B00146AF
:1022C0000190009102B0704780B584B00146029041
:1022D000029890F820000128009132D1FFE702987F
:1022E000022180F8201002980068016821F00101A5
:1022F000016001F053F90190FFE70298006840681F
:1023000010F0010F17D0FFE701F048F9DDF804E005
:10231000A0EB0E000B280DD3FFE70298416A41F4B1
:10232000003141620298052180F8201001208DF8CB
:102330000F000FE0E1E70298002141628DF80F10D5
:1023400008E00298416A41F40021416201208DF8C1
:102350000F00FFE79DF80F0004B080BD82B001467A
:102360000190009102B0704782B001460190009147
:1023700002B0704782B001460190009102B07047F0
:1023800082B001460190009102B0704782B00146D0
:102390000190009102B0704782B001460190009117
:1023A00002B0704782B001460190009102B07047C0
:1023B00080B586B0014604900498806D0390019129
:1023C00001F0ECF80290049890F8350002280DD046
:1023D000FFE7049880214165FFE70498002180F819
:1023E0003410FFE701208DF817005BE004980068C7
:1023F000016821F01601016004980068416921F02C
:10240000800141610498006C002805D1FFE7049821
:10241000806C002807D0FFE704980068016821F06D
:1024200008010160FFE704980068016821F00101DC
:102430000160FFE704980068006810F0010F1BD0EE
:10244000FFE701F0ABF8DDF808E0A0EB0E0006288E
:1024500011D3FFE70498202141650498032180F8F7
:102460003510FFE70498002180F83410FFE70320BF
:102470008DF8170016E0DDE70498C06D3F2101FAE2
:1024800000F0039988600498012180F83510FFE777
:102490000498002180F83410FFE7FFE700208DF852
:1024A0001700FFE79DF8170006B080BD83B0014616
:1024B0000190019890F835000228009107D0FFE7BD
:1024C00001988021416501208DF80B000EE00198F4
:1024D000052180F8351001980068016821F001019C
:1024E0000160FFE700208DF80B00FFE79DF80B006F
:1024F00003B0704780B586B0014604900498002868
:10250000029104D1FFE701208DF817004BE00498F9
:1025100090F83500022804D1FFE702208DF817005B
:1025200041E004980068016821F00101016004980D
:102530000068002101600498006841600498006808
:10254000816004980068C160049800680161049883
:1025500000682122426104980191FEF70BFD03906F
:1025600004980199C1630498016404984164049833
:1025700081640498C164049801650498C06D3F2289
:1025800002FA00F0039A906004984165049880F87C
:102590003510FFE70498002180F83410FFE7002091
:1025A0008DF81700FFE79DF8170006B080BD00000A
:1025B00082B0014601900198406D009102B07047D1
:1025C00082B001460190019890F83500009102B068
:1025D0007047000080B588B0014607900020059044
:1025E00040F20810C2F20000006848F2B512C1F6CD
:1025F0004E32A0FB0202920A0492079A926D039255
:10260000039A12680692069A079BDB6D4FF0080C3E
:102610000CFA03F31A42029101901BD0FFE70798CE
:102620000068006810F0040F13D0FFE707980068F7
:10263000016821F0040101600798C06D082101FACA
:1026400000F0039988600798416D41F001014165F0
:10265000FFE7FFE706980799C96D012202FA01F129
:10266000084215D0FFE707980068406910F0800F16
:102670000DD0FFE70798C06D012101FA00F0039922
:1026800088600798416D41F002014165FFE7FFE76F
:1026900006980799C96D042202FA01F1084215D083
:1026A000FFE707980068006810F0020F0DD0FFE701
:1026B0000798C06D042101FA00F00399886007981B
:1026C000416D41F004014165FFE7FFE70698079976
:1026D000C96D102202FA01F108424BD0FFE70798BA
:1026E0000068006810F0080F43D0FFE70798C06D3E
:1026F000102101FA00F003998860079800680068CB
:1027000010F4802F1CD0FFE707980068006810F4D1
:10271000002F0AD1FFE70798006C002804D0FFE7DC
:102720000798016C8847FFE709E00798806C00284C
:1027300004D0FFE70798816C8847FFE7FFE717E0C1
:1027400007980068006810F4807F07D1FFE70798BA
:102750000068016821F008010160FFE70798006C3C
:10276000002804D0FFE70798016C8847FFE7FFE7E0
:10277000FFE7FFE706980799C96D202202FA01F1E9
:10278000084200F09580FFE707980068006810F0A5
:10279000100F00F08C80FFE70798C06D202101FA30
:1027A00000F003998860079890F83500052838D123
:1027B000FFE707980068016821F01601016007989B
:1027C0000068416921F0800141610798006C002890
:1027D00005D1FFE70798806C002807D0FFE707982E
:1027E0000068016821F008010160FFE70798C06DEB
:1027F0003F2101FA00F0039988600798012180F8D1
:102800003510FFE70798002180F83410FFE707989C
:10281000006D002804D0FFE70798016D8847FFE7A7
:1028200081E007980068006810F4802F1CD0FFE753
:1028300007980068006810F4002F0AD1FFE7079896
:10284000406C002804D0FFE70798416C8847FFE7F9
:1028500009E00798C06B002804D0FFE70798C16B18
:102860008847FFE7FFE721E007980068006810F459
:10287000807F11D1FFE707980068016821F01001FF
:1028800001600798012180F83510FFE707980021C3
:1028900080F83410FFE7FFE70798C06B002804D0EA
:1028A000FFE70798C16B8847FFE7FFE7FFE7FFE710
:1028B0000798406D002836D0FFE70798406D10F06C
:1028C000010F26D0FFE70798052180F835100798FB
:1028D0000068016821F001010160FFE705980130FF
:1028E00005900499884201D9FFE707E0FFE70798C0
:1028F0000068006810F0010FF0D1FFE70798012190
:1029000080F83510FFE70798002180F83410FFE7C2
:10291000FFE70798C06C002804D0FFE70798C16C58
:102920008847FFE7FFE708B080BD000080B586B0AC
:102930000146049000200390009100F02FFE0290C9
:102940000498002804D1FFE701208DF81700AAE0C1
:102950000498406A002801D0FFE7FFE704980221AD
:1029600080F83510FFE70498002180F83410FFE765
:1029700004980068016821F001010160FFE70498F4
:102980000068006810F0010F14D0FFE700F006FEA9
:10299000DDF808E0A0EB0E0006280AD3FFE7049854
:1029A000202141650498032180F835108DF8171017
:1029B00079E0E4E70498006800680390039848F21F
:1029C0003F01CFF2100108400390049841688268EB
:1029D000C368D0F810C01143194341EA0C014269A1
:1029E000114382691143C2691143006A0843039984
:1029F000084303900498406A042808D1FFE704982C
:102A0000C16A006B0843039908430390FFE70398EA
:102A10000499096808600498006840690390039865
:102A200020F0070003900498406A0399084303903C
:102A30000498406A04281CD1FFE70498806A03992F
:102A4000084303900498C06A002811D0FFE7049857
:102A5000FEF7BEFA00280AD0FFE70498402141653E
:102A60000498012180F835108DF817101BE0FFE75E
:102A7000FFE703980499096848610498FEF77AFA19
:102A800001900498C06D3F2101FA00F0019988601F
:102A900004980021416504984FF0010E80F835E05C
:102AA0008DF81710FFE79DF8170006B080BD0000F5
:102AB00080B58EB013468C4686460C908DF82F104C
:102AC0000A9200208DF827000493CDF80CC0CDF8B1
:102AD00008E000F063FD07900C9890F8350002289C
:102AE0000DD0FFE70C9880214165FFE70C9800218D
:102AF00080F83410FFE701208DF83700F5E00C98DE
:102B00000068006810F4807F08D0FFE70C984FF44D
:102B10008071416501208DF83700E6E09DF82F00B7
:102B2000002807D1FFE70C98C06D202101FA00F0C2
:102B3000089006E00C98C06D102101FA00F0089092
:102B4000FFE70C98806D0590059800680690FFE7F8
:102B50000698089900220842019207D1FFE70C98D5
:102B6000406D012121EA00000190FFE70198C007B4
:102B700000286CD0FFE70A980130002821D0FFE739
:102B80000A9800280BD0FFE700F008FDDDF81CE0F4
:102B9000A0EB0E00DDF828E0704511D9FFE70C9896
:102BA000202141650C98012180F83510FFE70C9831
:102BB000002180F83410FFE703208DF8370094E0FF
:102BC000FFE705980068069006980C99C96D0822E1
:102BD00002FA01F108420DD0FFE70C98416D41F077
:102BE000010141650C98C06D082101FA00F00599BA
:102BF0008860FFE706980C99C96D012202FA01F17D
:102C000008420DD0FFE70C98416D41F0020141658B
:102C10000C98C06D012101FA00F005998860FFE76A
:102C200006980C99C96D042202FA01F108420DD0F0
:102C3000FFE70C98416D41F0040141650C98C06DAF
:102C4000042101FA00F005998860FFE780E70C98FD
:102C5000406D002825D0FFE70C98406D10F0010F63
:102C60001ED0FFE70C98FFF7A3FBDDF830E0DEF89D
:102C70005CE0302101FA0EF1DDF814E0CEF8081026
:102C80000C994FF0010E81F835E00090FFE70C98A9
:102C9000002180F83410FFE701208DF8370024E090
:102CA000FFE79DF82F00002812D1FFE70C98C06DB8
:102CB000302101FA00F0059988600C98012180F814
:102CC0003510FFE70C98002180F83410FFE707E08B
:102CD0000C98C06D102101FA00F005998860FFE79B
:102CE0009DF827008DF83700FFE79DF837000EB0FC
:102CF00080BD0000B0B58AB09C4696460C4605469D
:102D0000089007910692059300208DF81300CDF8E6
:102D10000CC0CDF808E001940095FFE7089890F802
:102D20003400012804D1FFE702208DF827002EE0AF
:102D30000898012180F83410FFE7FFE7089890F821
:102D40003500012814D1FFE70898022180F83510DA
:102D500008980021416508980799069A059BFEF797
:102D6000B3F908980068016841F00101016009E0C9
:102D7000FFE70898002180F83410FFE702208DF863
:102D80001300FFE79DF813008DF82700FFE79DF87B
:102D900027000AB0B0BD0000B0B58CB09C46964686
:102DA0000C4605460A9009910892079300208DF879
:102DB0001B000A98806D0590CDF810C0CDF80CE08E
:102DC00002940195FFE70A9890F83400012804D195
:102DD000FFE702208DF82F0047E00A98012180F8D4
:102DE0003410FFE7FFE70A9890F8350001282DD14D
:102DF000FFE70A98022180F835100A980021416502
:102E00000A980999089A079BFEF75EF90A98C06D1F
:102E10003F2101FA00F0059988600A98006801686E
:102E200041F0160101600A98006C002807D0FFE706
:102E30000A980068016841F008010160FFE70A98FC
:102E40000068016841F00101016009E0FFE70A98AC
:102E5000002180F83410FFE702208DF81B00FFE707
:102E60009DF81B008DF82F00FFE79DF82F000CB098
:102E7000B0BD000080B584B001460390009100F021
:102E80008DFB02900398019001980130002809D031
:102E9000FFE740F20C20C2F20000007801990844DC
:102EA0000190FFE7FFE700F079FBDDF808E0A0EB19
:102EB0000E00DDF804E0704501D2FFE7F3E704B04F
:102EC00080BD000090B00A4603460F900E9100208E
:102ED0000C900B900A900D9009920893FFE70D98C3
:102EE0000F2800F21081FFE70D98012101FA00F090
:102EF0000C900E980C9908400B900B980C998842F6
:102F000040F0FC80FFE70D9820F0030043F6080135
:102F1000C4F2010140580A900D9800F003008000AF
:102F20000F2101FA00F00A9908400A900A980F99B7
:102F30000022C4F202029142079003D1FFE7002071
:102F400006905EE00F9840F20041C4F20201884210
:102F500003D1FFE70120059050E00F9840F60001F3
:102F6000C4F20201884203D1FFE70220049042E04C
:102F70000F9840F60041C4F20201884203D1FFE7F6
:102F80000320039034E00F9841F20001C4F20201E3
:102F9000884203D1FFE70420029026E00F9841F217
:102FA0000041C4F20201884203D1FFE705200190ED
:102FB00018E00F9841F60001C4F20201884203D1E3
:102FC000FFE7062000900AE00F9841F60041C4F2A6
:102FD00002010822884208BF07220092FFE70098FA
:102FE0000190FFE701980290FFE702980390FFE746
:102FF00003980490FFE704980590FFE70598069072
:10300000FFE70698C0B20D9901F0030189008840DE
:103010000799814239D1FFE70B9843F60041C4F28A
:1030200001010A6822EA000008600B9843F6044197
:10303000C4F201010A6822EA000008600B9843F616
:103040000C41C4F201010A6822EA000008600B98F2
:1030500043F60841C4F201010A6822EA0000086050
:103060000D9800F0030080000F2101FA00F00A9093
:103070000A980D9921F0030143F60802C4F20102F7
:103080008B5823EA00008850FFE70D984000032189
:1030900001FA00F00F9A136823EA000010600D98FF
:1030A00000F0070292000F2303FA02F20F9B4FF683
:1030B000FC7CC7F6FF7C0CEA50001844036A23EA44
:1030C000020202620D98400001FA00F00F9AD368E4
:1030D00023EA0000D0600D98012202FA00F00F9A56
:1030E000536823EA000050600D98400001FA00F098
:1030F0000F998A6822EA00008860FFE7FFE70D98D1
:1031000001300D90EBE610B07047000082B0014630
:10311000ADF80600009102B07047000080B582B0A3
:103120000146ADF8060043F61440C4F20100006801
:10313000BDF80620104200910CD0FFE7BDF8060054
:1031400043F61441C4F201010860BDF80600FFF720
:10315000DDFFFFE702B080BD91B00A460346109044
:103160000F9100200D900C900B900E9009920893F7
:10317000FFE70E980F2800F2D581FFE70E98012196
:1031800001FA00F00D900F9800680D9908400C901E
:103190000C980D99884240F0C081FFE70F98406875
:1031A00000F00300012807D0FFE70F98406800F007
:1031B000030002282FD1FFE7109880680B900E982B
:1031C0004000032101FA00F00B9921EA00000B9066
:1031D0000F98C0680E99490088400B9908430B90DE
:1031E0000B9810998860109840680B900E980121F8
:1031F00001FA00F00B9921EA00000B900F9840684B
:10320000C0F300100E9988400B9908430B900B985F
:1032100010994860FFE70F98406800F0030003280A
:1032200018D0FFE71098C0680B900E98400003215B
:1032300001FA00F00B9921EA00000B900F988068CA
:103240000E99490088400B9908430B900B981099F0
:10325000C860FFE70F98406800F00300022828D1FB
:10326000FFE710980E994FF6FC72C7F6FF7202EA5C
:1032700051010844006A0B900E9800F0070080008E
:103280000F2101FA00F00B9921EA00000B900F9832
:1032900000690E9901F00701890088400B990843E5
:1032A0000B900B9810990E9B02EA5302114408628E
:1032B000FFE7109800680B900E984000032101FA78
:1032C00000F00B9921EA00000B900F98406800F085
:1032D00003000E99490088400B9908430B900B9806
:1032E000109908600F9880798007002800F01481F9
:1032F000FFE7FFE700200A9043F64400C4F2020013
:10330000016841F480410160006800F480400A9047
:103310000A980790FFE70E9820F0030043F6080193
:10332000C4F2010140580B900E9800F00300800099
:103330000F2101FA00F00B9921EA00000B90109880
:103340000021C4F20201884203D1FFE70020069069
:103350005EE0109840F20041C4F20201884203D1BD
:10336000FFE70120059050E0109840F60001C4F2FC
:103370000201884203D1FFE70220049042E0109846
:1033800040F60041C4F20201884203D1FFE7032066
:10339000039034E0109841F20001C4F20201884227
:1033A00003D1FFE70420029026E0109841F200418B
:1033B000C4F20201884203D1FFE70520019018E022
:1033C000109841F60001C4F20201884203D1FFE7E0
:1033D000062000900AE0109841F60041C4F2020174
:1033E0000822884208BF07220092FFE70098019058
:1033F000FFE701980290FFE702980390FFE7039828
:103400000490FFE704980590FFE705980690FFE712
:103410000698C0B20E9901F00301890088400B990B
:1034200008430B900B980E9921F0030143F6080214
:10343000C4F20102885043F60840C4F2010000685B
:103440000B900C980B9921EA00000B900F98807953
:10345000C006002805D5FFE70C980B9908430B9090
:10346000FFE70B9843F60841C4F20101086043F6F8
:103470000C40C4F2010000680B900C980B9921EAF3
:1034800000000B900F9880798006002805D5FFE793
:103490000C980B9908430B90FFE70B9843F60C41EF
:1034A000C4F20101086043F60440C4F20100006860
:1034B0000B900C980B9921EA00000B900F988079E3
:1034C0008007002805D5FFE70C980B9908430B905F
:1034D000FFE70B9843F60441C4F20101086043F68C
:1034E0000040C4F2010000680B900C980B9921EA8F
:1034F00000000B900F988079C007002805D0FFE7E7
:103500000C980B9908430B90FFE70B9843F600418A
:10351000C4F201010860FFE7FFE7FFE70E98013002
:103520000E9026E611B0704785B00A460346049017
:10353000ADF80E100498406902900298BDF80E1084
:1035400000EA010C21EA000040EA0C40049988617D
:103550000192009305B0704780B585B013468C4644
:1035600086460490ADF80E108DF80D209DF80D00E4
:1035700000280293CDF804C0CDF800E005D0FFE7A5
:10358000BDF80E000499886105E0BDF80E00000446
:1035900004998861FFE705B080BD000046F64060F1
:1035A000C2F200000068704740F20C20C2F2000036
:1035B0000078704740F21020C2F2000000687047A7
:1035C00080B584B00146029002980028019104D190
:1035D000FFE701208DF80F0042E0029890F84100CB
:1035E000002808D1FFE70298002180F840100298D7
:1035F0000EF02AF8FFE70298242180F84110029883
:103600000068C16821F40051C160029814F0DAFC2E
:1036100002980068016921F49041016102980068F4
:10362000416921F02201416102980068416941F03D
:103630000801416102980068C16841F40051C1600D
:1036400002980021416402984FF0200E80F841E07A
:10365000029880F842E0029841638DF80F10FFE76E
:103660009DF80F0004B080BD82B00146019000912A
:1036700002B0704780B585B013468C4686460490EC
:103680008DF80F10ADF80C200293CDF804C0CDF8E2
:1036900000E005B080BD000080B58AB00146099009
:1036A0000998006840690490099800684068039090
:1036B00000200290099890F83E008DF807009DF8D0
:1036C0001100C0070028009110D0FFE79DF80D0001
:1036D000C00700280AD0FFE7029840F001000290DE
:1036E000099800686FF480714161FFE79DF811004F
:1036F00000F002000021B1EB500F10D0FFE79DF861
:103700000D00C00700280AD0FFE7029840F0020031
:103710000290099800686FF400714161FFE79DF81D
:10372000110000F004000021B1EB900F51D0FFE731
:103730009DF80D00C00700284BD0FFE79DF807005B
:103740008DF823000998408D0790099890F83D0066
:103750008DF81B000998006B05909DF82300202828
:103760001BD1FFE70798002817D1FFE79DF81B0042
:1037700021280ED0FFE79DF81B00292809D0FFE77C
:103780009DF81B00282808D1FFE70598212804D1BF
:10379000FFE7099810F0EEF81AE0099800686FF456
:1037A00080614161029840F0040002909DF807009A
:1037B000102805D0FFE79DF80700402807D1FFE754
:1037C00009980068016841F400710160FFE7FFE7B4
:1037D000FFE79DF8110000F008000021B1EBD00FC9
:1037E00010D0FFE79DF80D00C00700280AD0FFE7C2
:1037F000029840F008000290099800686FF4006198
:103800004161FFE70298002809D0FFE70298099973
:103810000A6C1043086409980EF05AFDFFE70AB0DD
:1038200080BD000080B588B001460790002005905B
:1038300007980068406804900798C06A039007984A
:1038400090F83E008DF80B00079890F83D008DF839
:103850000A009DF80B001028019106D0FFE79DF8A3
:103860000B00402840F00381FFE70798006880695B
:10387000059007980068406906900698C0070028E0
:1038800015D1FFE703980121B0F52A0F009108D068
:10389000FFE7039800F1AC40B0FA80F040090090D7
:1038A000FFE70098C007002801D0FFE7A4E10698D1
:1038B000C007002810D0FFE79DF8110000F00200BB
:1038C0000021B1EB500F07D0FFE707980EF0EAFA9E
:1038D00007980FF075FCC9E09DF8180000F008008B
:1038E0000021B1EBD00F0DD0FFE79DF8110000F0E3
:1038F00002000021B1EB500F04D0FFE707980FF052
:1039000087FAB2E09DF8180000F002000021B1EB48
:10391000500F0DD0FFE79DF8110000F002000021CC
:10392000B1EB500F04D0FFE707980FF09BFA9BE034
:103930009DF8140000F004000021B1EB900F50D06E
:10394000FFE707980068406800F40060B0F5006F7A
:1039500046D0FFE79DF818000021B1EBD01F16D02C
:10396000FFE79DF8110000F004000021B1EB900F7B
:103970000DD0FFE79DF8180000F004000021B1EB26
:10398000900F04D1FFE707980FF0A0F927E09DF80A
:10399000180000F004000021B1EB900F1DD0FFE7EC
:1039A0009DF8110000F002000021B1EB500F14D07F
:1039B000FFE79DF80A00212804D1FFE707980FF0E0
:1039C00013F909E09DF80B00402804D1FFE70798A0
:1039D0000FF078FCFFE7FFE700E0FFE7FFE7FFE716
:1039E00041E007980068406800F40060B0F5006F9F
:1039F00038D0FFE79DF8180000F040000021B1EB3F
:103A0000901F16D0FFE79DF8110000F00400002180
:103A1000B1EB900F0DD0FFE79DF8180000F0040007
:103A20000021B1EB900F04D1FFE707980EF0A4FE40
:103A300017E09DF8180000F004000021B1EB900F92
:103A40000DD0FFE79DF8110000F002000021B1EB5E
:103A5000500F04D0FFE707980EF0B0FD00E0FFE73D
:103A6000FFE7FFE7FFE7FFE7FFE7FFE7C4E00798AF
:103A7000006C002805D0FFE70798006840690690B1
:103A800008E0079800688069059007980068406919
:103A90000690FFE79DF8180000F002000021B1EB4E
:103AA000500F18D0FFE79DF8110000F00200002130
:103AB000B1EB500F0FD0FFE70798006C002805D03E
:103AC000FFE70798006880690590FFE70798059968
:103AD0000FF0F4FE8FE09DF8180000F010000021B8
:103AE000B1EB101F0DD0FFE79DF8110000F00200B0
:103AF0000021B1EB500F04D0FFE707980FF0AEFFA5
:103B000078E09DF80A00212805D0FFE79DF80A001B
:103B1000292836D1FFE79DF818000021B1EBD01F0E
:103B200016D0FFE79DF8110000F004000021B1EB72
:103B3000900F0DD0FFE79DF8180000F00400002161
:103B4000B1EB900F04D1FFE707980FF07DFE17E06F
:103B50009DF8180000F004000021B1EB900F0DD08B
:103B6000FFE79DF8110000F002000021B1EB500FBB
:103B700004D0FFE707980FF04DFE00E0FFE7FFE7F6
:103B800037E09DF8180000F040000021B1EB901FD5
:103B900016D0FFE79DF8110000F004000021B1EB02
:103BA000900F0DD0FFE79DF8180000F004000021F1
:103BB000B1EB900F04D1FFE707980FF0EFFD17E08E
:103BC0009DF8180000F004000021B1EB900F0DD01B
:103BD000FFE79DF8110000F002000021B1EB500F4B
:103BE00004D0FFE707980FF0BFFD00E0FFE7FFE715
:103BF000FFE7FFE7FFE7FFE708B080BD82B00146BF
:103C00000190009102B0704780B590B001460E90CF
:103C10000E9800280B9104D1FFE701208DF83F009A
:103C20004FE10E9890F83D00002808D1FFE70E986C
:103C3000002180F83C100E9802F046FBFFE70E983A
:103C4000242180F83D100E980068016821F00101E0
:103C500001600E980068016841F4004101600E980F
:103C60000068016821F40041016005F015F90C902D
:103C70000E98406848F2A061C0F2010188420BD85A
:103C8000FFE70C9848F28041C0F21E0100228842F2
:103C900038BF01220A920AE00C9840F60011C0F2E7
:103CA0003D010022884238BF01220A92FFE70A98AC
:103CB000012804D1FFE701208DF83F0001E10C98B5
:103CC0004DF68361C4F21B31A0FB0101890C0D91FB
:103CD0000E990968496821F03F010D9A11430E9A27
:103CE000126851600E990968096A21F03F010E9A25
:103CF000526848F2A063C0F201039A420990089109
:103D000004D8FFE70D98013007900FE00D984FF4AD
:103D10009671484344F6D351C1F26201A0FB010100
:103D2000012202EB911106900791FFE7079808998D
:103D300008430E9A126810620E980068C0694CF62B
:103D4000FF7290430E9A526848F2A063C0F20103DA
:103D50009A4205901FD8FFE70C9801380E994968E0
:103D60004900B0FBF1F001306FF31F30032803D896
:103D7000FFE7042004900BE00C9801380E99496885
:103D80004900B0FBF1F001306FF31F300490FFE702
:103D9000049803904FE00E98806800280DD1FFE74B
:103DA0000C9801380E99496801EB4101B0FBF1F024
:103DB00001306FF31F3002900DE00C9801380E991E
:103DC000496819225143B0FBF1F00130042161F33D
:103DD0001F300290FFE702980005002803D1FFE79B
:103DE0000120019024E00E98806800280DD1FFE7A3
:103DF0000C9801380E99496801EB4101B0FBF1F0D4
:103E000001306FF31F3000900DE00C9801380E99CF
:103E1000496819225143B0FBF1F00130042161F3EC
:103E20001F300090FFE7009840F400400190FFE74A
:103E300001980390FFE70398059908430E9A1268CA
:103E4000D0610E980068006820F0C0000E9A1368D8
:103E5000D2F81CC0126A42EA0C02104318600E9895
:103E60000068806848F2FF3290430E9A1368D2F8D7
:103E70000CC0126942EA0C02104398600E98006868
:103E8000C06820F0FF000E9A1368D2F814C092693F
:103E900042EA0C021043D8600E980068026842F0B3
:103EA000010202600E98002202640E98202380F81E
:103EB0003D300E9802630E9880F83E208DF83F202A
:103EC000FFE79DF83F0010B080BD0000B0B590B096
:103ED0009C4696460C4605460E90ADF836100C9260
:103EE0000B93CDF818C0CDF814E004940395FFF7B8
:103EF00055FB0A90002009900E9890F83D0020286C
:103F000040F03881FFE70E980A996A461160022155
:103F1000C0F21001012219230FF034FF002804D051
:103F2000FFE702208DF83F0028E1FFE70E9890F8A8
:103F30003C00012804D1FFE702208DF83F001DE17D
:103F40000E98012180F83C10FFE7FFE70E9800680B
:103F5000006800F00100012807D0FFE70E98006814
:103F6000016841F001010160FFE70E9800680168F7
:103F700021F4006101600E98242180F83D100E9814
:103F8000002101640E980021CFF6FF71C162FFE7A6
:103F90000E980068016841F4807101600E980B9BD7
:103FA0000A996A4611604FF0011100220FF0EAFEF3
:103FB000002810D0FFE70E980068006810F4807F9A
:103FC00005D0FFE70E984FF400710164FFE703206E
:103FD0008DF83F00D2E0BDF8360000F0FE000E99EB
:103FE00009680861FFF7DAFA0A900E9800684069DC
:103FF000C0F340008DF823000E9800684069C0F3BC
:1040000080208DF82200FFE70E9890F83D000021F7
:10401000A02802910ED0FFE79DF823000021002880
:10402000029107D1FFE79DF82200B0FA80F0400925
:104030000290FFE70298C007002823D0FFE7FFF7B0
:10404000ADFADDF828E0A0EB0E00DDF82CE07045BD
:1040500004D8FFE70B98002805D1FFE70E98A021B0
:1040600080F83D10FFE70E9800684069C0F34000FB
:104070008DF823000E9800684069C0F380208DF809
:104080002200C1E70E98202180F83D100E980068AC
:10409000406900F002000121B1EB500F34D1FFE77D
:1040A0000E980068016841F400710160FFE700208C
:1040B00007900E980068406907900E980068806924
:1040C000079007980190FFE70E980A996A461160D9
:1040D0000221C0F21001012219230FF053FE002823
:1040E00004D0FFE701208DF83F0047E00E98202123
:1040F00080F83D10FFE70E98002180F83C10FFE7A4
:1041000000208DF83F0039E00E980068016841F406
:10411000007101600E9800686FF4806141610E9833
:104120000A996A4611600221C0F210010122192386
:104130000FF028FE002804D0FFE701208DF83F0093
:104140001CE0FFE7099801300990FFE709980C99F6
:104150008842FFF41DAFFFE70E98202180F83D1044
:10416000FFE70E98002180F83C10FFE701208DF852
:104170003F0003E002208DF83F00FFE79DF83F007D
:1041800010B0B0BD82B001460190009102B07047FE
:1041900082B001460190009102B0704782B00146A2
:1041A0000190009102B0704780B586B00A46034680
:1041B0000490ADF80E10049890F83E008DF80D00B4
:1041C00004980068806900F002000021B1EB500FF4
:1041D0000292019343D0FFE79DF80D00102805D00F
:1041E000FFE79DF80D00402839D1FFE7FFE704986D
:1041F00090F83C00012804D1FFE702208DF8170059
:1042000031E00498012180F83C10FFE7FFE70498B3
:10421000002101630498602280F83D200498006822
:10422000026822F48062026004980068026842F426
:10423000007202600498418504980068416821F486
:10424000E0614160FFE70498002180F83C10FFE73F
:1042500004980EF03DF800208DF8170003E00120CF
:104260008DF81700FFE79DF8170006B080BD00002D
:1042700070B594B0DDF860C09E4614460D46064603
:104280001290ADF846101092ADF83E30CDF824E013
:10429000089407950696CDF814C0FFF77FF90E90A5
:1042A000129890F83D00202840F00A82FFE712980B
:1042B0000E996A4611600221C0F2100101221923F1
:1042C0000FF060FD002804D0FFE702208DF84F00BA
:1042D000FAE1FFE7129890F83C00012804D1FFE7CB
:1042E00002208DF84F00EFE11298012180F83C1078
:1042F000FFE7FFE712980068006800F0010001285E
:1043000007D0FFE712980068016841F001010160E1
:10431000FFE712980068016821F4006101601298BB
:10432000222180F83D101298102180F83E1012983A
:1043300000210164109812994862BDF83E0012995C
:1043400048851298408D1299088512980021CFF661
:10435000FF71C1621298189A0E9BBDF846100EF0BC
:10436000C3FA002804D0FFE701208DF84F00ABE12D
:104370001298008D002815D1FFE7FFE700200D906F
:104380001298006840690D901298006880690D903D
:104390000D980490FFE712980068016841F40071DD
:1043A000016056E01298008D01281BD1FFE712989A
:1043B0000068016821F480610160FFE700200C9033
:1043C0001298006840690C901298006880690C90FF
:1043D0000C980390FFE712980068016841F400719F
:1043E000016035E01298008D02281BD1FFE712987A
:1043F0000068016821F4806101601298006801681A
:1044000041F400610160FFE700200B901298006802
:1044100040690B901298006880690B900B9802908D
:10442000FFE714E012980068016841F480610160C0
:10443000FFE700200A901298006840690A901298DD
:10444000006880690A900A980190FFE7FFE7FFE79C
:10445000FFE7FFE71298008D002800F01F81FFE7BB
:104460001298008D032800F2D080FFE71298008D8B
:1044700001281FD1FFE7129818990E9A0FF0D0FD6E
:10448000002804D0FFE701208DF84F001CE11298AE
:10449000006800691299496A08701298416A0131EE
:1044A00041621298018D013901851298418D0139BF
:1044B0004185A9E01298008D02283DD1FFE71298AE
:1044C000189B0E996A4611600421C0F20101002276
:1044D0000FF058FC002804D0FFE701208DF84F00B2
:1044E000F2E012980068016841F4007101601298CE
:1044F000006800691299496A08701298416A01318E
:1045000041621298018D013901851298418D01395E
:1045100041851298006800691299496A08701298DA
:10452000416A013141621298018D01390185129869
:10453000418D0139418566E01298189B0E996A46B3
:1045400011600421C0F2010100220FF01BFC0028C1
:1045500004D0FFE701208DF84F00B5E01298006805
:10456000016821F480610160129800680069129965
:10457000496A08701298416A013141621298018DAE
:10458000013901851298418D013941851298189B96
:104590000E996A4611600421C0F2010100220FF059
:1045A000F1FB002804D0FFE701208DF84F008BE0DD
:1045B00012980068016841F4007101601298006867
:1045C00000691299496A08701298416A0131416282
:1045D0001298018D013901851298418D013941856B
:1045E0001298006800691299496A08701298416A25
:1045F000013141621298018D013901851298418D76
:1046000001394185FFE7FFE747E0129818990E9AB4
:104610000FF006FD002804D0FFE701208DF84F00C1
:1046200052E01298006800691299496A087012985D
:10463000416A013141621298018D01390185129858
:10464000418D0139418512980068406900F00400ED
:104650000121B1EB900F1FD1FFE71298008D0328C5
:1046600007D1FFE712980068016821F480610160BA
:10467000FFE71298006800691299496A0870129859
:10468000416A013141621298018D01390185129808
:10469000418D01394185FFE7FFE7DBE612982021D4
:1046A00080F83D101298002180F83E10FFE7129824
:1046B000002180F83C10FFE700208DF84F0003E058
:1046C00002208DF84F00FFE79DF84F0014B070BD39
:1046D000B0B58EB09C4696460C4605460C90ADF89B
:1046E0002E100A92ADF82630002008900C9890F811
:1046F0003D002028CDF818C0CDF814E004940395AF
:1047000040F02881FFE740F20810C2F20000006884
:1047100048F21F51C5F2EB11A0FB0101C90844F694
:10472000D352C1F26202A1FB0212920919235A4329
:10473000089202900191FFE70898013808900898C4
:10474000002813D1FFE70C98002101630C98202268
:1047500080F83D200C9880F83E100C98016C41F0D8
:104760002001016402208DF83700F7E0FFE70C9884
:104770000068806900F002000021B1EB500FDBD12E
:10478000FFE7FFE70C9890F83C00012804D1FFE711
:1047900002208DF83700E1E00C98012180F83C10F0
:1047A000FFE7FFE70C980068006800F001000128AF
:1047B00007D0FFE70C980068016841F00101016033
:1047C000FFE70C980068016821F4006101600C9813
:1047D000222180F83D100C98102180F83E100C9892
:1047E000002101640A980C994862BDF826000C99D2
:1047F00048850C98408D0C9908850C980021CFF6BF
:10480000FF71C162BDF82E000C9948640C98008DB0
:10481000002800F08280FFE70C98806B002829D0E8
:10482000FFE70C98806B42F2C501C0F60101C1633D
:104830000C98806B42F24901C0F60101C1640C98EA
:10484000806B002101640C98806B41640C98806B34
:1048500081640C98806B01650C980168426A836BD7
:104860001031008D00901846009BFEF795FA8DF8E8
:104870001F0016E00C98202180F83D100C980021B4
:1048800080F83E100C98016C41F080010164FFE754
:104890000C98002180F83C10FFE701208DF83700CC
:1048A0005CE09DF81F0000281FD1FFE70C9800680E
:1048B000016841F4806101600C980068016841F46E
:1048C00080710160FFE70C98002180F83C10FFE741
:1048D0000C980068416841F4407141600C98006890
:1048E000416841F40061416016E00C98202180F895
:1048F0003D100C98002180F83E100C98016C41F09E
:1049000010010164FFE70C98002180F83C10FFE7DC
:1049100001208DF8370021E018E0FFE70C98002116
:1049200080F83C10FFE70C980068416841F4E061B2
:1049300041600C980068016841F4806101600C9846
:104940000068016841F480710160FFE700208DF884
:10495000370003E002208DF83700FFE79DF83700AD
:104960000EB0B0BD70B594B0DDF860C09E46144680
:104970000D4606461290ADF846101092ADF83E3046
:1049800000200E900D904FF4E0600C90129890F87B
:104990003D002028CDF828E0099408950796CDF829
:1049A00018C040F0C281FFE712980068006800F468
:1049B0000070B0F5007F08D0FFE71898082804D0F1
:1049C000FFE7189801283FD1FFE740F20810C2F234
:1049D0000000006848F21F51C5F2EB11A0FB010175
:1049E000C90844F6D352C1F26202A1FB0212920935
:1049F00019235A430D9205900491FFE70D98013851
:104A00000D900D98002813D1FFE712980021016343
:104A10001298202280F83D20129880F83E101298BB
:104A2000016C41F02001016402208DF84F0080E10B
:104A3000FFE712980068806900F002000021B1EBE6
:104A4000500FDBD1FFE7FFE7FFE7129890F83C003B
:104A5000012804D1FFE702208DF84F0069E1129888
:104A6000012180F83C10FFE7FFE71298006800681A
:104A700000F00100012807D0FFE7129800680168E4
:104A800041F001010160FFE712980068016821F41C
:104A90000061016012980068416821F48051416012
:104AA0001298222180F83D101298102180F83E10B3
:104AB000129800210164109812994862BDF83E00D6
:104AC000129948851298408D129908851898129964
:104AD000C862BDF84600129948641298006B0E90A7
:104AE0001298008D002800F0EA80FFE71298408DB0
:104AF000022827D1FFE71898202804D0FFE718984C
:104B000010281FD1FFE70E98122813D1FFE7129843
:104B10000068016821F480610160129800680168F2
:104B200041F40061016012980068416841F48051CD
:104B3000416006E012980068016841F480610160FC
:104B4000FFE71AE012980068016841F48061016093
:104B50001898202809D0FFE71898B0F12A4F04D000
:104B6000FFE71898102807D1FFE7129800684168FE
:104B700041F480514160FFE7FFE71298806B002805
:104B800023D0FFE71298806B42F2C501C0F6010105
:104B9000C1631298806B42F24901C0F60101C16401
:104BA0001298806B002101641298806B0165129845
:104BB0000168426A836B1031008D03901846039B95
:104BC000FEF7EAF88DF82F0016E01298202180F801
:104BD0003D101298002180F83E101298016C41F0AF
:104BE00080010164FFE71298002180F83C10FFE784
:104BF00001208DF84F009CE09DF82F00002846D141
:104C0000FFE70E98122814D1FFE718980121B0F59C
:104C10002A0F029108D0FFE7189800F1AC40B0FAD3
:104C200080F040090290FFE70298C00700280AD0F0
:104C3000FFE712980068016841F4807101604FF449
:104C400040700C9003E04FF480700C90FFE7FFE79A
:104C50001298002180F83C10FFE71898042808D02B
:104C6000FFE71898202804D0FFE71898102807D1EC
:104C7000FFE712980068416841F400614160FFE776
:104C80000C98129909684A681043486016E0129817
:104C9000202180F83D101298002180F83E101298D3
:104CA000016C41F010010164FFE71298002180F8C7
:104CB0003C10FFE701208DF84F003AE031E01298F8
:104CC0000068016841F4806101600E98122814D1D7
:104CD000FFE718980121B0F52A0F019108D0FFE7EE
:104CE000189800F1AC40B0FA80F040090190FFE75D
:104CF0000198C007002807D0FFE7129800680168F4
:104D000041F480710160FFE7FFE71298002180F80D
:104D10003C10FFE70C98129909684A6810434860F4
:104D2000FFE700208DF84F0003E002208DF84F00D0
:104D3000FFE79DF84F0014B070BD000070B594B04F
:104D4000DDF860C09E4614460D4606461290ADF84A
:104D500046101092ADF83E3000200E900D90129843
:104D600090F83D002028CDF82CE00A94099508968B
:104D7000CDF81CC040F07781FFE71298006800680A
:104D800000F40070B0F5007F08D0FFE718980828FD
:104D900004D0FFE7189801283FD1FFE740F2081040
:104DA000C2F20000006848F21F51C5F2EB11A0FBEF
:104DB0000101C90844F6D352C1F26202A1FB0212FA
:104DC000920919235A430D9206900591FFE70D9819
:104DD00001380D900D98002813D1FFE7129800219B
:104DE00001631298202280F83D20129880F83E102E
:104DF0001298016C41F02001016402208DF84F00EF
:104E000035E1FFE712980068806900F00200002198
:104E1000B1EB500FDBD1FFE7FFE7FFE7129890F807
:104E20003C00012804D1FFE702208DF84F001EE16D
:104E30001298012180F83C10FFE7FFE71298006804
:104E4000006800F00100012807D0FFE71298006811
:104E5000016841F001010160FFE7129800680168F4
:104E600021F4006101601298212180F83D10129810
:104E7000102180F83E1012980021016410981299B8
:104E80004862BDF83E00129948851298408D1299EB
:104E9000088518981299C862BDF8460012994864AE
:104EA0001298006B0E901298008D002800F0A580DB
:104EB000FFE71298406B002826D0FFE71298406B5E
:104EC00042F2C501C0F60101C1631298406B42F283
:104ED0004901C0F60101C1641298406B00210164D0
:104EE0001298406B016512980168426A436B103159
:104EF000008D0490184603911146039A049BFDF718
:104F00004BFF8DF8330016E01298202180F83D10F9
:104F10001298002180F83E101298016C41F0800137
:104F20000164FFE71298002180F83C10FFE70120A0
:104F30008DF84F009BE09DF83300002845D1FFE736
:104F400012980068016841F4806101600E98112890
:104F500014D1FFE718980121B0F52A0F029108D06B
:104F6000FFE7189800F1AC40B0FA80F040090290D9
:104F7000FFE70298C007002807D0FFE712980068F3
:104F8000016841F480710160FFE7FFE7129800219A
:104F900080F83C10FFE71898042808D0FFE718981D
:104FA000202804D0FFE71898102807D1FFE71298AF
:104FB0000068416841F400614160FFE712980068B1
:104FC000416841F44071416016E01298202180F858
:104FD0003D101298002180F83E101298016C41F0AB
:104FE00010010164FFE71298002180F83C10FFE7F0
:104FF00001208DF84F003AE031E012980068016816
:1050000041F4806101600E98112814D1FFE71898CF
:105010000121B0F52A0F019108D0FFE7189800F19F
:10502000AC40B0FA80F040090190FFE70198C0075A
:10503000002807D0FFE712980068016841F48071EA
:105040000160FFE7FFE71298002180F83C10FFE7BE
:1050500012980068416841F4E0614160FFE7002078
:105060008DF84F0003E002208DF84F00FFE79DF818
:105070004F0014B070BD000070B58EB0DDF848C0B0
:105080009E4614460D4606460C90ADF82E100A9228
:10509000ADF82630CDF818E0059404950396CDF8C8
:1050A00008C0FEF77BFA08900C9890F83D00202885
:1050B00040F0F180FFE70C9808996A4611600221E0
:1050C000C0F21001012219230EF05CFE002804D06A
:1050D000FFE702208DF83700E1E0FFE70C9890F839
:1050E0003C00012804D1FFE702208DF83700D6E00C
:1050F0000C98012180F83C10FFE7FFE70C9800684E
:10510000006800F00100012807D0FFE70C98006854
:10511000016841F001010160FFE70C980068016837
:1051200021F4006101600C98212180F83D100C9859
:10513000102180F83E100C98002101640A980C9907
:105140004862BDF826000C9948850C98408D0C9952
:1051500008850C980021CFF6FF71C1620C98129A55
:10516000089BBDF82E100DF0A7FC002804D0FFE727
:1051700001208DF8370092E0FFE7002007900C989F
:105180000068406907900C9800688069079007984C
:105190000190FFE7FFE70C98008D002863D0FFE740
:1051A0000C981299089A0FF055F8002810D0FFE7D4
:1051B0000C98006C042807D1FFE70C980068016880
:1051C00041F400710160FFE701208DF8370066E0CF
:1051D0000C980168406A007808610C98416A0131B6
:1051E00041620C98418D013941850C98018D01393E
:1051F00001850C980068406900F004000121B1EBC2
:10520000900F17D1FFE70C98008D002812D0FFE710
:105210000C980168406A007808610C98416A013175
:1052200041620C98418D013941850C98018D0139FD
:105230000185FFE70C981299089A0EF03FFD0028AF
:1052400010D0FFE70C98006C042807D1FFE70C98FA
:105250000068016841F400710160FFE701208DF8EA
:1052600037001CE097E70C980068016841F4007172
:1052700001600C98202180F83D100C98002180F8E6
:105280003E10FFE70C98002180F83C10FFE700205B
:105290008DF8370003E002208DF83700FFE79DF816
:1052A00037000EB070BD0000B0B590B09C46964679
:1052B0000C4605460E90ADF836100C92ADF82E3027
:1052C00000200A900E9890F83D002028CDF820C0CC
:1052D000CDF81CE00694059540F02B81FFE740F2E5
:1052E0000810C2F20000006848F21F51C5F2EB112D
:1052F000A0FB0101C90844F6D352C1F26202A1FB2E
:105300000212920919235A430A9204900391FFE76B
:105310000A9801380A900A98002813D1FFE70E98DE
:10532000002101630E98202280F83D200E9880F81D
:105330003E100E98016C41F02001016402208DF8AE
:105340003F00FAE0FFE70E980068806900F0020075
:105350000021B1EB500FDBD1FFE7FFE70E9890F88B
:105360003C00012804D1FFE702208DF83F00E4E073
:105370000E98012180F83C10FFE7FFE70E980068C7
:10538000006800F00100012807D0FFE70E980068D0
:10539000016841F001010160FFE70E9800680168B3
:1053A00021F4006101600E98212180F83D100E98D3
:1053B000102180F83E100E98002101640C980E997F
:1053C0004862BDF82E000E9948850E98408D0E99C2
:1053D00008850E980021CFF6FF71C162BDF8360036
:1053E0000E9948640E98008D002800F08580FFE734
:1053F0000E98406B00282CD0FFE70E98406B42F2CD
:10540000C501C0F60101C1630E98406B42F249012B
:10541000C0F60101C1640E98406B002101640E9832
:10542000406B41640E98406B81640E98406B01653F
:105430000E980168426A436B1031008D0290184645
:1054400001911146019A029BFDF7A6FC8DF82700F9
:1054500016E00E98202180F83D100E98002180F86B
:105460003E100E98016C41F080010164FFE70E9838
:10547000002180F83C10FFE701208DF83F005CE040
:105480009DF8270000281FD1FFE7FFE70E980021B5
:1054900080F83C10FFE70E980068416841F44071C5
:1054A00041600E980068416841F4006141600E98C7
:1054B0000068016841F4806101600E98006801682D
:1054C00041F48071016016E00E98202180F83D10B3
:1054D0000E98002180F83E100E98016C41F01001EA
:1054E0000164FFE70E98002180F83C10FFE70120DF
:1054F0008DF83F0021E018E00E980068016841F443
:10550000806101600E980068016841F4807101605B
:10551000FFE70E98002180F83C10FFE70E98006826
:10552000416841F4E0614160FFE700208DF83F00F1
:1055300003E002208DF83F00FFE79DF83F0010B028
:10554000B0BD000082B001460190009102B07047EA
:1055500082B001460190009102B070472DE9F04100
:1055600096B0DDF878C0DDF874E01C9C1D46164648
:105570000F4680461490ADF84E10ADF84C20ADF8B3
:105580004A30ADF848E00C950B960A97CDF8248088
:10559000CDF820C00794FEF701F81190149890F808
:1055A0003D00202840F00D82FFE7149811996A46CB
:1055B00011600221C0F21001012219230EF0E2FB5A
:1055C000002804D0FFE702208DF85700FDE1FFE737
:1055D000149890F83C00012804D1FFE702208DF8D0
:1055E0005700F2E11498012180F83C10FFE7FFE733
:1055F00014980068006800F00100012807D0FFE758
:1056000014980068016841F001010160FFE71498F7
:105610000068016821F4006101601498222180F87B
:105620003D101498402180F83E1014980021016428
:105630001C9814994862BDF848001499488514983C
:10564000408D1499088514980021CFF6FF71C1622E
:1056500014981E99119ABDF84A30BDF84CC0BDF897
:105660004EE06C4662602160714662460DF0C4FEF9
:10567000002804D0FFE701208DF85700A5E1149819
:10568000008D002815D1FFE7FFE700201090149847
:105690000068406910901498006880691090109814
:1056A0000690FFE714980068016841F400710160FA
:1056B00050E01498008D01281BD1FFE71498006872
:1056C000016821F480610160FFE700200F901498C9
:1056D000006840690F901498006880690F900F98D7
:1056E0000590FFE714980068016841F400710160BB
:1056F0002FE01498008D02281BD1FFE71498006852
:10570000016821F48061016014980068016841F427
:1057100000610160FFE700200E9014980068406966
:105720000E901498006880690E900E980490FFE720
:105730000EE0FFE700200D901498006840690D907E
:105740001498006880690D900D980390FFE7FFE7BB
:10575000FFE7FFE7FFE71498008D002800F01F81A6
:10576000FFE71498008D032800F2D080FFE714981B
:10577000008D01281FD1FFE714981E99119A0EF091
:105780004FFC002804D0FFE701208DF857001CE1F2
:105790001498006800691499496A08701498416A5D
:1057A000013141621498018D013901851498418DB0
:1057B00001394185A9E01498008D02283DD1FFE709
:1057C00014981E9B11996A4611600421C0F20101D0
:1057D00000220EF0D7FA002804D0FFE701208DF850
:1057E0005700F2E014980068016841F4007101600C
:1057F0001498006800691499496A08701498416AFD
:10580000013141621498018D013901851498418D4F
:10581000013941851498006800691499496A087033
:105820001498416A013141621498018D0139018552
:105830001498418D0139418566E014981E9B119999
:105840006A4611600421C0F2010100220EF09AFAAA
:10585000002804D0FFE701208DF85700B5E0149828
:105860000068016821F48061016014980068006993
:105870001499496A08701498416A01314162149878
:10588000018D013901851498418D013941851498A4
:105890001E9B11996A4611600421C0F20101002289
:1058A0000EF070FA002804D0FFE701208DF85700B1
:1058B0008BE014980068016841F40071016014984D
:1058C000006800691499496A08701498416A0131A6
:1058D00041621498018D013901851498418D013977
:1058E00041851498006800691499496A08701498F1
:1058F000416A013141621498018D01390185149882
:10590000418D01394185FFE7FFE747E014981E9973
:10591000119A0EF085FB002804D0FFE701208DF8D6
:10592000570052E01498006800691499496A087099
:105930001498416A013141621498018D0139018541
:105940001498418D0139418514980068406900F030
:1059500004000121B1EB900F1FD1FFE71498008DD7
:10596000032807D1FFE714980068016821F48061DB
:105970000160FFE71498006800691499496A08708B
:105980001498416A013141621498018D01390185F1
:105990001498418D01394185FFE7FFE7DBE6149854
:1059A000202180F83D101498002180F83E10FFE778
:1059B0001498002180F83C10FFE700208DF8570074
:1059C00003E002208DF85700FFE79DF8570016B05E
:1059D000BDE8F081F0B595B0DDF86CC0DDF868E0A9
:1059E0001C4615460E4607461390ADF84A10ADF812
:1059F0004820ADF84630ADF844C00B940A9509969E
:105A00000897CDF81CE0FDF7C9FD109000200F901D
:105A1000139890F83D00202840F09B81FFE740F26A
:105A20000810C2F20000006848F21F51C5F2EB11E5
:105A3000A0FB0101C90844F6D352C1F26202A1FBE6
:105A40000212920919235A430F9206900591FFE71B
:105A50000F9801380F900F98002813D1FFE7139883
:105A6000002101631398202280F83D20139880F8CC
:105A70003E101398016C41F02001016402208DF862
:105A800053006AE1FFE713980068806900F00200A4
:105A90000021B1EB500FDBD1FFE7FFE7139890F83F
:105AA0003C00012804D1FFE702208DF8530054E1A7
:105AB0001398012180F83C10FFE7FFE71398006876
:105AC000006800F00100012807D0FFE71398006884
:105AD000016841F001010160FFE713980068016867
